:100000000C944E000C946D000C946D000C946D00DB
:100010000C946D000C946D000C946D000C946D00AC
:100020000C946D000C946D000C946D000C94670F93
:100030000C942A0C0C946D000C94380D0C949E12A8
:100040000C946D000C946D000C946D000C946D007C
:100050000C9421090C94340B0C946D000C946D00DD
:100060000C946D000C946D000C946D000C946D005C
:100070000C944C090C945D0B0C946D000C946D0069
:100080000C946D000C946D000C946D00526F626FB7
:1000900074732052756C65210D0A000011241FBE77
:1000A000CFEFD0E4DEBFCDBF12E0A0E0B1E0EAE6E2
:1000B000FAE200E00BBF02C007900D92AC32B1072C
:1000C000D9F712E0ACE2B2E001C01D92A23DB10747
:1000D000E1F70E94EE010C9433150C94000080911E
:1000E000DC018F5F8093DC01089502C00E94FB0A4F
:1000F00082E00E9425078823C9F30895CF93C82F73
:100100000E94380680E091E00E944F0680E061E0A6
:100110000E94CF068EE091E00E944F068EEE92E0A4
:100120000E94AF0FC53309F4B2C0C63390F4C23396
:1001300009F45FC0C33330F4C03351F1C13309F067
:1001400028C13DC0C33309F46EC0C43309F021C1D6
:1001500084C0C83309F4E9C0C93338F4C63309F49C
:10016000B0C0C73309F015C1C6C0C93309F4F7C020
:10017000CA3309F00EC180912C0290912D02019694
:1001800090932D0280932C028AE30E94B90505C149
:100190001092E0011092DF0160E070E0CB010E945C
:1001A000AC0680E991E00E94AF0F80912C02909103
:1001B0002D02019690932D0280932C02EEC081E0D7
:1001C00090E09093E0018093DF0161E070E080E0D7
:1001D00090E00E94AC0680E991E00E94AF0F809110
:1001E0002C0290912D02019690932D0280932C0267
:1001F000D4C082E090E09093E0018093DF0162E060
:1002000070E080E090E00E94AC0680E991E00E94FE
:10021000AF0F80912C0290912D02019690932D02A8
:1002200080932C02BAC083E090E09093E001809329
:10023000DF0163E070E080E090E00E94AC0680E9BE
:1002400091E00E94AF0F80912C0290912D020196B7
:1002500090932D0280932C02A0C084E090E09093B4
:10026000E0018093DF0164E070E080E090E00E94B4
:10027000AC0680E991E00E94AF0F80912C02909132
:100280002D02019690932D0280932C0286C085E06A
:1002900090E09093E0018093DF0165E070E080E002
:1002A00090E00E94AC0680E991E00E94AF0F80913F
:1002B0002C0290912D02019690932D0280932C0296
:1002C0006CC086E090E09093E0018093DF0166E0EF
:1002D00070E080E090E00E94AC0680E991E00E942E
:1002E000AF0F80912C0290912D02019690932D02D8
:1002F00080932C0252C087E090E09093E0018093BD
:10030000DF0167E070E080E090E00E94AC0680E9E9
:1003100091E00E94AF0F80912C0290912D020196E6
:1003200090932D0280932C0238C088E090E0909347
:10033000E0018093DF0168E070E080E090E00E94DF
:10034000AC0680E991E00E94AF0F80912C02909161
:100350002D02019690932D0280932C021EC089E0FD
:1003600090E09093E0018093DF0169E070E080E02D
:1003700090E00E94AC0680E991E00E94AF0F80916E
:100380002C0290912D02019690932D0280932C02C5
:1003900004C00E947500C0939A02CF910895CF9334
:1003A000DF93C8E7D2E010C0FE01E90FF11D8081A4
:1003B0000E947E00809130028F3119F41092300239
:1003C00003C08F5F8093300282E00E9415079091F6
:1003D0003002891749F7DF91CF91089581EE91E0BE
:1003E00062E00E94010F80E066E970E00E945C0F0D
:1003F00081E066E970E00E945C0F82E066E970E0EF
:100400000E945C0F83E066E970E00E945C0F80E070
:1004100060E476E00E94350F81E068E077E00E94BA
:10042000350F82E060EB74E00E94350F83E068E9ED
:1004300078E00E94350F0E94380683E191E00E9427
:100440004F0680E061E00E94CF0681E291E00E94C9
:100450004F0688EB9BE00E94AF0F82E040E052EC39
:1004600061E070E00E94400A82E068E772E040E2EA
:100470000E941E090F2EF3E1CF2EF1E0DF2EF02DAA
:100480000F2EF1E2AF2EF1E0BF2EF02D0F2EF7EA86
:100490002F2EF1E03F2EF02DCBE3D1E00F2EF6E62C
:1004A0004F2EF1E05F2EF02D0F2EFAE56F2EF1E0CA
:1004B0007F2EF02D0F2EFEE48F2EF1E09F2EF02DDB
:1004C0000AE912E00F2EFCE0EF2EFF24F02DE00EE3
:1004D000F11E0E94FB0A80912C0290912D02843023
:1004E000910514F40E94CF0180912E0280FF29C053
:1004F00080E066E970E00E945C0F81E066E970E0F0
:100500000E945C0F82E066E970E00E945C0F83E06D
:1005100066E970E00E945C0F80E060ED77E00E9489
:10052000350F81E06EE076E00E94350F82E062E5F3
:1005300073E00E94350F83E062E078E00E94350F9F
:1005400028C080E066E970E00E945C0F81E066E907
:1005500070E00E945C0F82E066E970E00E945C0F30
:1005600083E066E970E00E945C0F80E060ED77E078
:100570000E94350F81E06EE977E00E94350F82E03E
:1005800062E573E00E94350F83E060E679E00E9447
:10059000350F80912E0290912F02019690932F0299
:1005A00080932E028091DF019091E001009729F560
:1005B0000E9438068FE291E00E944F0680E061E0E1
:1005C0000E94CF06CE010E944F066091DF0170911C
:1005D000E001882777FD8095982F0E94AC0698B19E
:1005E00080E1892788B93C9A84EF91E00E94AF0F9F
:1005F00010922D0210922C027BC18130910529F5B9
:100600000E94380682E491E00E944F0680E061E09B
:100610000E94CF06CE010E944F066091DF017091CB
:10062000E001882777FD8095982F0E94AC0698B14D
:1006300080E1892788B93C9A88EB91E00E94AF0F4E
:1006400010922D0210922C0253C18230910521F597
:100650000E943806C4010E944F0680E061E00E94BB
:10066000CF06CE010E944F066091DF017091E0013C
:10067000882777FD8095982F0E94AC0698B180E17D
:10068000892788B93C9A80E991E00E94AF0F1092C7
:100690002D0210922C022CC18330910521F50E946D
:1006A0003806C3010E944F0680E061E00E94CF0639
:1006B000CE010E944F066091DF017091E001882712
:1006C00077FD8095982F0E94AC0698B180E189272C
:1006D00088B93C9A88E691E00E94AF0F10922D02F3
:1006E00010922C0205C18430910521F50E94380634
:1006F000C2010E944F0680E061E00E94CF06CE0159
:100700000E944F066091DF017091E001882777FD1C
:100710008095982F0E94AC0698B180E1892788B90E
:100720003C9A89E591E00E94AF0F10922D02109241
:100730002C02DEC08530910529F50E94380682E73B
:1007400091E00E944F0680E061E00E94CF06CE015A
:100750000E944F066091DF017091E001882777FDCC
:100760008095982F0E94AC0698B180E1892788B9BE
:100770003C9A8FE491E00E94AF0F10922D021092EC
:100780002C02B6C08630910529F50E9438068EE706
:1007900091E00E944F0680E061E00E94CF06CE010A
:1007A0000E944F066091DF017091E001882777FD7C
:1007B0008095982F0E94AC0698B180E1892788B96E
:1007C0003C9A86E391E00E94AF0F10922D021092A6
:1007D0002C028EC08730910529F50E9438068BE8DF
:1007E00091E00E944F0680E061E00E94CF06CE01BA
:1007F0000E944F066091DF017091E001882777FD2C
:100800008095982F0E94AC0698B180E1892788B91D
:100810003C9A82E291E00E94AF0F10922D0210925A
:100820002C0266C08830910529F50E94380689E9B6
:1008300091E00E944F0680E061E00E94CF06CE0169
:100840000E944F066091DF017091E001882777FDDB
:100850008095982F0E94AC0698B180E1892788B9CD
:100860003C9A8EE091E00E94AF0F10922D02109200
:100870002C023EC08930910521F50E943806C10145
:100880000E944F0680E061E00E94CF06CE010E94E8
:100890004F066091DF017091E001882777FD809518
:1008A000982F0E94AC0698B180E1892788B93C9ABC
:1008B0008AEF90E00E94AF0F10922D0210922C024E
:1008C00017C098B180E1892788B93C9A0E94380600
:1008D000C6010E944F0680E061E00E94CF06C5017C
:1008E0000E944F068091DD019091DE010E94AF0FC2
:1008F00088E00E941207882379F10E947500C801E0
:100900006CE870E04CE050E00E942A1582E0B801EB
:100910004CE00E94310BF70110820E94380680E003
:1009200061E00E94CF0685EB91E00E944F06609146
:10093000DF017091E001882777FD8095982F0E9454
:10094000AC0680ED97E00E94AF0F10922D0210923E
:100950002C0288E00E94FE0680E20E941207882393
:1009600081F10E9475000E9438068AEB91E00E9496
:100970004F068091DD019091DE01F1E0853F9F07F8
:1009800028F40A969093DE018093DD0180E061E017
:100990000E94CF0683EC91E00E944F066091DD013A
:1009A0007091DE0180E090E00E94AC068AEF90E05A
:1009B0000E94AF0F10922D0210922C0280E20E9432
:1009C000FE0684E00E941207882309F482CD0E946B
:1009D00075000E94380681ED91E00E944F068091DB
:1009E000DD019091DE018233910528F00A97909302
:1009F000DE018093DD0180E061E00E94CF0683ECA0
:100A000091E00E944F066091DD017091DE0180E06F
:100A100090E00E94AC0688EC90E00E94AF0F10922C
:100A20002D0210922C0284E00E94FE0652CD81E03D
:100A300090E06F9364E06A95F1F76F910197C9F7C1
:100A400008950F931F93CF93DF9317B13D98289884
:100A5000299AC0E0D0E00E9417052A9A0E94170543
:100A600006B12A980E9417052A9A0E9417052A980B
:100A7000249605FF10C09E0140E050E080913502B1
:100A800090913602A0913702B091380228173907A9
:100A90004A075B0700F39E0140E050E08091350279
:100AA00090913602A0913702B09138022817390789
:100AB0004A075B0728F082E390E0A0E0B0E004C0C2
:100AC00080E395E7A0E0B0E0809335029093360292
:100AD000A0933702B093380217B9DF91CF911F91DD
:100AE0000F91089528B190E08F709070880F991F32
:100AF000880F991F237C282B28B92A9A0E94170552
:100B00002A980E9417050895A2E0B0E0EAE8F5E00F
:100B10000C94D113182F4A8369830E9402060E9405
:100B20002105F7B008B1299869814A81662311F03F
:100B3000289A01C0289887B18C6387B9413029F081
:100B4000812F82958F700E947205812F8F700E9475
:100B50007205F7B808B92296E5E00C94ED1360E051
:100B600042E00E948405089561E042E00E9484050D
:100B700008950E94B405089560E041E00E94840554
:100B800008953D98459A80E395E7A0E0B0E0809312
:100B9000350290933602A0933702B0933802209A20
:100BA000219A229A8EE190E00E94AF0F83E00E948A
:100BB000BC0586E090E00E94AF0F83E00E94BC0578
:100BC00082E090E00E94AF0F83E00E94BC0582E0CB
:100BD00090E00E94AF0F82E00E94BC0582E090E0AE
:100BE0000E94AF0F88E20E94AF0588E00E94AF0527
:100BF00081E00E94AF0586E00E94AF058CE00E9474
:100C0000AF05089580913902882329F481E080930B
:100C100039020E94C105089581E00E94AF058091CC
:100C2000310290913202009711F1A0E0B0E208C0C9
:100C3000E0913102F0913202E20FF31FB083AF5F17
:100C40002A2F30E08091E30190E001976091E40168
:100C500070E0869FA001879F500D969F500D112434
:100C6000241735072CF310923402109233020895A2
:100C70000E940C060895EF92FF92CF93DF93E82E27
:100C8000E7017E01F92EE70102C00E94B4058991B7
:100C90008823D9F7DF91CF91FF90EF9008950E94BC
:100CA0003B060895AAE0B0E0E8E5F6E00C94CC132A
:100CB0009B01AC011AE06AE0C62ED12CE12CF12C8C
:100CC0005E010894A11CB11C022FCA01B901A70141
:100CD00096010E9487131150F501E10FF11D005D8F
:100CE000922F990F892F880F880F890F081B008377
:100CF000211531054105510539F708C0F601E10F0D
:100D0000F11D80810E94B4051F5F04C06E0108942C
:100D1000C11CD11C1A3090F32A96EAE00C94E81317
:100D2000EF92FF920F931F937B018C0197FF0BC0F3
:100D300010950095F094E094E11CF11C011D111D2B
:100D40008DE20E94B405C801B7010E9452061F91AE
:100D50000F91FF90EF9008950E9490060895A5E0EE
:100D6000B0E0E5EBF6E00C94D313182F80E889830C
:100D700080EC8A8384E98B8384ED8C83FE01E60F0B
:100D8000F11D8181810F6D830E94AF0510933402A4
:100D90006D81609333022596E3E00C94EF130E947B
:100DA000AF06089587B1837D87B988B18C6288B911
:100DB00085E090E06F9364E06A95F1F76F91019799
:100DC000C9F7089580913A02882329F481E080933D
:100DD0003A020E94D20608951F93182F0E94E2063D
:100DE00086B18123E9F38AE090E00E94AF0F86B1DB
:100DF0008123B1F386B181231F9108950E94EC06EF
:100E00000895A1E0B0E0E7E0F7E00C94D413898303
:100E10000E94E20696B19095898189232196E2E0AD
:100E20000C94F0130E9401070895282F30E0F90177
:100E3000EE0FFF1F43E0220F331F4A95E1F7E20F49
:100E4000F31FEB51FE4F82810895282F30E0F90106
:100E5000EE0FFF1F73E0220F331F7A95E1F7E20FC9
:100E6000F31FEB51FE4F4181282F30E0F901EE0FC7
:100E7000FF1F53E0220F331F5A95E1F7E20FF31FD4
:100E8000EB51FE4F81E09381491380E00895282FB4
:100E900030E0F901EE0FFF1FB3E0220F331FBA95C8
:100EA000E1F7E20FF31FEB51FE4F408551854115ED
:100EB000510509F452C0282F30E0F901EE0FFF1F51
:100EC00073E0220F331F7A95E1F7E20FF31FEB5126
:100ED000FE4F7281282F30E0F901EE0FFF1FB3E0C3
:100EE000220F331FBA95E1F7E20FF31FEB51FE4FCC
:100EF0009481791790F5282F30E0F901EE0FFF1F4C
:100F000073E0220F331F7A95E1F7E20FF31FEB51E5
:100F1000FE4F9281490F511DFA016083282F30E066
:100F2000F901EE0FFF1F53E0220F331F5A95E1F72F
:100F3000E20FF31FEB51FE4F92819F5F282F30E0AD
:100F4000F901EE0FFF1FB3E0220F331FBA95E1F74F
:100F5000E20FF31FEB51FE4F9283282F30E0F9018F
:100F6000EE0FFF1F73E0220F331F7A95E1F7E20FB8
:100F7000F31FEB51FE4F4281282F30E0F901EE0FB5
:100F8000FF1F53E0220F331F5A95E1F7E20FF31FC3
:100F9000EB51FE4F9481491701F5282F30E0F901FC
:100FA000EE0FFF1F93E0220F331F9A95E1F7E20F38
:100FB000F31FEB51FE4F9581992379F0282F30E0F4
:100FC000F901EE0FFF1FB3E0220F331FBA95E1F7CF
:100FD000E20FF31FEB51FE4F128208950F931F9300
:100FE000182F823009F475C0882319F4E1ECF0E081
:100FF00002C0E9ECF0E080818F778083812F90E060
:10100000FC01EE0FFF1F03E0880F991F0A95E1F71F
:10101000E80FF91FEB51FE4F808591850097A9F1EC
:10102000212F30E0F901EE0FFF1FA3E0220F331F45
:10103000AA95E1F7E20FF31FEB51FE4F9281212FAA
:1010400030E0F901EE0FFF1F63E0220F331F6A95B6
:10105000E1F7E20FF31FEB51FE4F84819817A8F4DC
:10106000112319F4E0ECF0E002C0E8ECF0E080813C
:1010700087FF0BC0112319F4E6ECF0E002C0EEECA0
:10108000F0E06081812F0E944707212F30E0F901B5
:10109000EE0FFF1F43E0220F331F4A95E1F7E20FE7
:1010A000F31FEB51FE4F8081882309F059C01123B3
:1010B00019F4E1ECF0E002C0E9ECF0E08081806836
:1010C00080834EC08091FE01882319F01092FB01AD
:1010D00047C08091010290910202009709F440C03C
:1010E0009091FB018091FD019817D0F58091470206
:1010F0008823A9F40E94B70F8093470210E00BC029
:101100000E94B20FE02FF0E03197E11BF109E85B9C
:10111000FD4F80831F5F00914702101788F3A09155
:101120004702AA23E9F08091FB01E0910102F091CE
:101130000202E80FF11DA150A0934702B0E0A85BA6
:10114000BD4F8C9180838091FB018F5F8093FB0169
:101150009091FB018091FD01981709F0BACFB2CFB1
:101160001F910F910895823051F0882319F4E1EC1A
:10117000F0E002C0E9ECF0E090819F779083A82F27
:10118000B0E0FD01EE0FFF1F53E0AA0FBB1F5A9501
:10119000E1F7EA0FFB1FEB51FE4F71876087682F65
:1011A00070E0FB01EE0FFF1F93E0660F771F9A952B
:1011B000E1F7E60FF71FEB51FE4F1282682F70E048
:1011C000FB01EE0FFF1FA3E0660F771FAA95E1F763
:1011D000E60FF71FEB51FE4F4483482F50E0FA0112
:1011E000EE0FFF1F63E0440F551F6A95E1F7E40F10
:1011F000F51FEB51FE4F25838230D9F0282F30E0C8
:10120000F901EE0FFF1F43E0220F331F4A95E1F76C
:10121000E20FF31FEB51FE4F9081992351F4882385
:1012200019F4E1ECF0E002C0E9ECF0E080818068C4
:101230008083089521E00E94B30808950E941A094E
:1012400008951F920F920FB60F920BB60F921124B2
:101250002F933F934F935F936F937F938F939F93BE
:10126000AF93BF93EF93FF936091C60080E00E941D
:101270004707FF91EF91BF91AF919F918F917F9120
:101280006F915F914F913F912F910F900BBE0F90F7
:101290000FBE0F901F9018951F920F920FB60F92CE
:1012A0000BB60F9211242F933F934F935F936F933D
:1012B0007F938F939F93AF93BF93EF93FF9360912F
:1012C000CE0081E00E944707FF91EF91BF91AF915F
:1012D0009F918F917F916F915F914F913F912F914E
:1012E0000F900BBE0F900FBE0F901F901895882384
:1012F00019F4E1ECF0E002C0E9ECF0E080818062FA
:1013000080830895882319F4E1ECF0E002C0E9EC51
:10131000F0E080818F7D80830895282F30E0F901EF
:10132000EE0FFF1F93E0220F331F9A95E1F7E20FB4
:10133000F31FEB51FE4F2681378121153105A1F1B5
:10134000282F30E0F901EE0FFF1FA3E0220F331F1B
:10135000AA95E1F7E20FF31FEB51FE4F4181282FD1
:1013600030E0F901EE0FFF1F63E0220F331F6A9593
:10137000E1F7E20FF31FEB51FE4F93814917A0F401
:10138000282F30E0F901EE0FFF1F43E0220F331F3B
:101390004A95E1F7E20FF31FEB51FE4F908199233D
:1013A00019F40E94770908950E94820908958230F5
:1013B00031F1282F30E0F901EE0FFF1F53E0220F2B
:1013C000331F5A95E1F7E20FF31FEB51FE4F908167
:1013D000992349F4882319F4E1ECF0E002C0E9EC28
:1013E000F0E098E908C0882319F4E1ECF0E002C0CD
:1013F000E9ECF0E098E190830E948D0978940895DB
:10140000882319F0813041F404C080E00E94D7099C
:10141000089581E00E94D7090895A0E0B0E0E3E1DB
:10142000FAE00C94CF13D82E7A018B010E94000AA7
:101430008D2D823001F1DD2019F4C4ECD0E002C022
:10144000CCECD0E0C801B70128EF3FEF4FEF5FEFE2
:101450000E9448136050734D8E4C9E4FA801970117
:10146000E4E0220F331F441F551FEA95D1F70E9475
:10147000871339832883CDB7DEB7E7E00C94EB13ED
:101480000E940D0A0895282F30E0F901EE0FFF1F8A
:1014900073E0220F331F7A95E1F7E20FF31FEB5150
:1014A000FE4F468157814115510509F465C0282F2B
:1014B00030E0F901EE0FFF1F93E0220F331F9A95E2
:1014C000E1F7E20FF31FEB51FE4F6181282F30E06F
:1014D000F901EE0FFF1FA3E0220F331FAA95E1F7DA
:1014E000E20FF31FEB51FE4F9381691708F044C0E0
:1014F000882319F4E0ECF0E002C0E8ECF0E0908121
:1015000095FF3AC0882319F4A6ECB0E002C0AEEC17
:10151000B0E0282F30E0F901EE0FFF1F63E0220F4B
:10152000331F6A95E1F7E20FF31FEB51FE4F9181F4
:10153000490F511DFA0190819C93282F30E0F90149
:10154000EE0FFF1F93E0220F331F9A95E1F7E20F92
:10155000F31FEB51FE4F91819F5F282F30E0F9017F
:10156000EE0FFF1FA3E0220F331FAA95E1F7E20F52
:10157000F31FEB51FE4F91830E948D0908951F9335
:10158000182F823031F00E948209812F0E94430A75
:101590001DC08091FF01909100020097B9F0309139
:1015A000FA012091FC01321788F406C08091FA01FB
:1015B0008F5F8093FA01EDCF2091FA01820F911D88
:1015C000FC0180810E94BE0F882381F71F9108953E
:1015D00080E00E94BF0A81E00E94BF0A82E00E9470
:1015E000BF0A80E00E94EE0781E00E94EE0782E0E1
:1015F0000E94EE0708950E94E80A0895282F30E01F
:10160000F901EE0FFF1F93E0220F331F9A95E1F7C8
:10161000E20FF31FEB51FE4F77836683282F30E0F4
:10162000F901EE0FFF1FA3E0220F331FAA95E1F788
:10163000E20FF31FEB51FE4F1182282F30E0F9012A
:10164000EE0FFF1F63E0220F331F6A95E1F7E20FF1
:10165000F31FEB51FE4F4383823011F00E948D093E
:1016600008950E94FE0A08951F920F920FB60F92DE
:101670000BB60F9211242F933F934F935F936F9369
:101680007F938F939F93AF93BF93EF93FF9380E0EC
:101690000E94430AFF91EF91BF91AF919F918F916B
:1016A0007F916F915F914F913F912F910F900BBE62
:1016B0000F900FBE0F901F9018951F920F920FB6AC
:1016C0000F920BB60F9211242F933F934F935F937A
:1016D0006F937F938F939F93AF93BF93EF93FF93FA
:1016E00081E00E94430AFF91EF91BF91AF919F91DA
:1016F0008F917F916F915F914F913F912F910F90BB
:101700000BBE0F900FBE0F901F901895FC01118219
:10171000108213821282158214821682683068F455
:1017200089E290E0918380838BE290E093838283CF
:101730008AE290E09583848323C0603180F483E261
:1017400090E09183808385E290E09383828384E2BA
:1017500090E09583848370E06850704011C06831D8
:10176000C0F486E290E09183808388E290E09383E6
:10177000828387E290E09583848370E060517040BB
:1017800081E090E002C0880F991F6A95E2F7868396
:1017900008956032C0F480E290E09183808382E219
:1017A00090E09383828381E290E0958384832FE1AC
:1017B00030E0261B310981E090E002C0880F991FBC
:1017C0002A95E2F786830895FC01A481B58186817C
:1017D000662321F09C91982B9C9308959C91809571
:1017E00089238C930895FC016F3F31F4A281B3816A
:1017F0008C91968189270CC0A281B3818681662352
:1018000021F09C91982B9C9308959C91809589231D
:101810008C930895A7E0B0E0E0E1FCE00C94D013D5
:101820007C018E010F5F1F4FC8010E94860BC8010B
:1018300060E00E94F30BC80161E00E94E40B8B8121
:101840009C81F701918380838F8182832796E6E0D4
:101850000C94EC131F920F920FB60F920BB60F92CF
:1018600011241F932F933F934F935F936F937F9315
:101870008F939F93AF93BF93EF93FF9380915F02FA
:101880008F5F877080935F0240E053E021C090E05B
:10189000209160023091610280FF0BC0459FF001F2
:1018A0001124E20FF31FA081B1812C913281232BEF
:1018B0000BC0459FF0011124E20FF31FA081B181FD
:1018C0003C912281209523232C93959587954F5FFA
:1018D00090915C024917D8F210915F021F5F177058
:1018E00080915D02181728F01092890010928800EC
:1018F00049C0212F30E0220F331FE0915002F091B8
:101900005102E20FF31F40815181A0915802B09122
:101910005902A20FB31F6D917C911197611571054A
:1019200011F141155105F9F0A0915402B091550201
:10193000A20FB31F8D919C9111970097A1F04817AA
:10194000590738F4460F571F48175907A8F4CA011A
:1019500013C09C01260F371F4217530768F0CA01B6
:10196000861B970B09C0A0915402B0915502A20F9B
:10197000B31F8D919C91119790938900809388005B
:101980009183808380915E02181728F010928B005B
:1019900010928A0042C0812F90E0880F991FE09139
:1019A0005202F0915302E80FF91F40815181A0913A
:1019B0005A02B0915B02A80FB91F2D913C9111976B
:1019C000609156027091570221153105D1F0860FB2
:1019D000971FDC018D919C9111974817590738F496
:1019E000240F351F2817390790F4C90110C0BC0116
:1019F000620F731F4617570750F0CA01821B930BE3
:101A000006C0860F971FDC018D919C9111979093D2
:101A10008B0080938A009183808380915F029091F4
:101A20005E02891788F493E0899FC0011124E09138
:101A30006202F0916302E80FF91FA081B1819C91CD
:101A40008281809589238C93FF91EF91BF91AF9113
:101A50009F918F917F916F915F914F913F912F91C6
:101A60001F910F900BBE0F900FBE0F901F901895F7
:101A70001F920F920FB60F920BB60F9211248F93F5
:101A80009F93AF93BF93EF93FF9380915F029091E9
:101A90005E02891780F493E0899FC0011124E091D0
:101AA0006202F0916302E80FF91FA081B1818C916D
:101AB000928189278C93FF91EF91BF91AF919F9174
:101AC0008F910F900BBE0F900FBE0F901F90189527
:101AD0008091600290916102009731F00E94911410
:101AE0001092610210926002809150029091510216
:101AF000009731F00E9491141092510210925002FE
:101B00008091540290915502009731F00E949114F7
:101B100010925502109254028091580290915902ED
:101B2000009731F00E9491141092590210925802BD
:101B30008091620290916302009731F00E949114AB
:101B400010926302109262028091520290915302AD
:101B5000009731F00E949114109253021092520299
:101B60008091560290915702009731F00E94911493
:101B7000109257021092560280915A0290915B0285
:101B8000009731F00E94911410925B0210925A0259
:101B90000895A1E0B0E0EFECFDE00C94C613982EA0
:101BA000792E842E652E10926F0010926F0281E0C4
:101BB00080930302109271021092700210928100C1
:101BC000C62E643010F013E0C12EC0925C0281E09A
:101BD00090E00C2C02C0880F991F0A94E2F78093C2
:101BE0005D025D98559A82E880938000D22E29305C
:101BF00010F0B8E0DB2ED0925E020E94680D43E048
:101C00002C2D249FC001112449830E94FB138C01B9
:101C1000909361028093600280915D02482E55246A
:101C2000440C551CC2010E94FB137C01909351028D
:101C300080935002C2010E94FB135C0190935502F5
:101C400080935402C2010E94FB1390935902809327
:101C5000580249810115110509F443C0E114F1044A
:101C600009F43FC0A114B104E1F10097D1F1DD20E6
:101C700029F4092D172DEE24FF2446C0ED2DE49FF5
:101C8000C00111240E94FB138C0190936302809386
:101C9000620280915E02482E5524440C551CC201FC
:101CA0000E94FB137C019093530280935202C20165
:101CB0000E94FB135C019093570280935602C2016D
:101CC0000E94FB1390935B0280935A020115110549
:101CD00041F0E114F10429F0A114B10411F00097CE
:101CE00041F60E94680D81E088C0F80161918F0182
:101CF00080916002909161028E0D9F1D0E940A0CDE
:101D000083E090E0E80EF91E802F89198C1568F3A6
:101D100060915002709151024091540250915502CD
:101D20002091580230915902A0E014C08A2F90E00F
:101D3000880F991FFB01E80FF91F11821082FA0129
:101D4000E80FF91F11821082820F931FFC0111828C
:101D50001082AF5F80915D02A81740F3E82CF62C4B
:101D6000AA24BB2400E010E029C0F70161917F01A3
:101D70008091620290916302800F911F0E940A0C71
:101D8000E0915202F0915302EA0DFB1D1182108284
:101D9000E0915602F0915702EA0DFB1D118210826C
:101DA000E0915A02F0915B02EA0DFB1D1182108254
:101DB0000D5F1F4F82E090E0A80EB91E8E2D88198E
:101DC0008D1598F210925F0281E18093810088EA7C
:101DD00091E690938700809386008FEF86BB809179
:101DE0006F00806280936F00DD2029F080916F008A
:101DF000846080936F00789480E02196E0E10C94F9
:101E0000E21340E050E020E00E94C90D0895909157
:101E10005D02891748F590916F009F7D90936F0048
:101E200090E087709070880F991FE0915402F091B4
:101E30005502E80FF91F862F972F29E08339920763
:101E400010F082E999E09C01220F331F43E0880FD4
:101E5000991F4A95E1F7280F391F3183208380911C
:101E60006F00806280936F0008950E94070F0895AD
:101E700090915D028917F8F490916F009F7D909387
:101E80006F0090E087709070880F991FE091580262
:101E9000F0915902E80FF91F862F972F21E6893A12
:101EA000920710F088EA91E69183808380916F0019
:101EB000806280936F0008950E94380F08956F9399
:101EC00064E06A95F1F76F910197C9F708952F9231
:101ED0008F939F932FB68091650290916602019631
:101EE000809365029093660290E080916702891F5B
:101EF0008093670290916D029C5F90936D02809138
:101F00006C0280519742C0F090936D0280936C02F6
:101F10008091680290916902019680936802909383
:101F2000690290E080916A02891F80936A02809121
:101F30006B02891F80936B022FBE9F918F912F9010
:101F40001895CF93DF93EC0105C088EE93E00E94D3
:101F50005F0F21972097C9F7DF91CF9108950E94D5
:101F6000A10F08958FEF64E00E942313089583E882
:101F700067E00E9423130E94B20F08951F93182F49
:101F8000982F9095991F9927991F85E8891B65E0DF
:101F90000E942313812F8F7765E00E9423131F91E6
:101FA000089590917402E0917002F091710299236A
:101FB00011F0849101C08081282F21542A3110F41E
:101FC000805E0895803271F4209170023091710228
:101FD000A9014F5F5F4F509371024093700221152A
:101FE000310509F70895EF92FF92CF93DF930E9496
:101FF000D10FC0E0D0E01BC09E01220F331F93E041
:10200000CC0FDD1F9A95E1F7C20FD31F992787FDEB
:102010009095C80FD91FE09780917002909171023E
:10202000019690937102809370020E94D10F982FB5
:1020300090539A3008F3CE01DF91CF91FF90EF904B
:10204000089510926F0083E28093800081E1809375
:1020500081001092820080E197E290938900809342
:10206000880010928B0010928A00549A78940895F8
:1020700080916F02882329F481E080936F020E948F
:1020800021100895A0E0B0E0E8E4F0E10C94CA1358
:102090008C015B01E42E0E9438101092030217FF9E
:1020A00004C01F77AAE0FA2E02C0FF24F394C09068
:1020B0008100DD2428EFC222DD2488EC3F2D389FEB
:1020C000C001112480179107D8F4E80167E20131BB
:1020D000160710F0C0E1D7E2BE017695679580E063
:1020E00090E06058794687469F4F9E0140E050E05F
:1020F0000E948713890181E090E0C82AD92A2CC068
:1021000098E2F99E902D112480E0892EE4014E0181
:10211000982EE4018016910608F4E801BE01769538
:1021200067959E0140E050E08F2D8A3039F480E0C1
:1021300090E0605E734481449F4F06C080E090E071
:1021400060537D4E8C4E9F4F0E948713890152E051
:10215000852E912CC828D9282F2D2A3039F4CE016C
:1021600005966AE070E00E947313EB0133E0C83E0D
:10217000D30779F0BE0180E090E0950140E050E0A7
:102180000E94481328EE33E040E050E00E94A9137B
:1021900001C0950110926F00C092810010938900D8
:1021A0000093880040918800509189006E2D603125
:1021B00008F06FE080E190E0861B9109BA0102C04F
:1021C000769567958A95E2F770938B0060938A0005
:1021D000309377022093760286B38FEF86BB81E03F
:1021E00080936F00CDB7DEB7ECE00C94E6139B0153
:1021F0008F3F11F0442329F488EE93E0B90140E0C9
:1022000049C0813130F0582F5051503618F05FE5F9
:1022100001C050E0852F6CE00E946713A82FB0E04A
:10222000E4EFFFEFAE9FB001AF9F700DBE9F700D4A
:102230001124650F711D6C30710540F4FB01EE0F28
:10224000FF1FE35FFD4F6081718102C060E070E0BD
:10225000873081F0082E02C0660F771F0A94E2F7DC
:10226000823028F0CB0105966AE070E00CC0605027
:1022700070480BC0CB01B6E0880F991FBA95E1F703
:10228000029665E070E00E947313403108F04FE061
:10229000CB01B9010E9442100895A0E0B0E0E3E54F
:1022A000F1E10C94C913B09004028091720288236A
:1022B00061F060917302662341F08FEF70E040E0BF
:1022C0000E94F7101092730234C1C0ECDDE5AA241D
:1022D000A39414E0712E00ED17E0B4E0EB2EF12C86
:1022E000A4EFCA2EA1E0DA2EFFE08F2E912C0E94DF
:1022F000D10F20917002309171022F5F3F4F3093C8
:102300007102209370028636F1F18736CCF4823662
:1023100009F4AFC083367CF48E3349F18F333CF43B
:10232000813209F487C08C3309F09BC022C081360A
:1023300009F097C09BC0843601F185360CF51BC0AF
:102340008F3609F447C0803744F48C3611F18D364E
:1023500061F1873609F085C019C0843709F444C09B
:10236000863709F460C0823709F07BC039C0B39466
:10237000BECFBA94BCCFEE2435C0EE2482E07BC041
:10238000EE2484E078C0EE2485E075C0EE2487E07A
:1023900072C00E94F30FBC01909306028093050265
:1023A000809107029091080237C00E94D10F8C36AD
:1023B00019F41092720204C0A09272021092730279
:1023C00080917002909171020196909371028093B6
:1023D00070028DCF0E94F30FB82E8093040287CF36
:1023E000EE24E39480E047C00E94F30FBC01CE01CD
:1023F0000E947313CB01880F991F53E0660F771F5C
:102400005A95E1F7860F971F909308028093070271
:1024100060910502709106020E94731370930A0284
:102420006093090264CF0E94F30F90930C02809393
:102430000B025DCF70920402109308020093070212
:10244000F0920602E0920502D0920A02C0920902BE
:1024500090920C0280920B021092720244E0B42E11
:1024600046CF109271021092700263C0EE2489E090
:1024700002C0EE248BE09CE0B99EB02C1124B80E73
:102480000E94D10F8B3211F08332B9F48091700227
:102490009091710201969093710280937002B394AF
:1024A000EFCF80917002909171020196909371022A
:1024B00080937002BA940E94D10F8D3291F3C09133
:1024C0000902D0910A028153883058F4C091070262
:1024D000D09108020E94F30FBC01CE010E94731339
:1024E000EB018E010BC080917002909171020196F8
:1024F0009093710280937002C00FD11F16950795BB
:102500000E94D10F8E3279F380917202882339F0C4
:10251000CE019695879580937302C81BD109EE2052
:1025200011F0BB24BA948B2DBE0140910B020E9486
:10253000F710CDB7DEB7EDE00C94E5131F920F92C4
:102540000FB60F920BB60F9211242F933F934F9318
:102550005F936F937F938F939F93AF93BF93EF930B
:10256000FF9380917602909177029C012150304038
:102570003093770220937602009711F510926F0046
:10258000789480918100887F81608093810080E1D0
:1025900097E2909389008093880010928B001092AC
:1025A0008A0081E080930302809170029091710211
:1025B000009731F080917502882311F40E944D112B
:1025C000FF91EF91BF91AF919F918F917F916F910B
:1025D0005F914F913F912F910F900BBE0F900FBEC7
:1025E0000F901F9018956F9364E06A95F1F76F91C3
:1025F0000197C9F70895A1E0B0E0E1E0F3E10C94A0
:10260000D313182F249909C02C9907C02C9A8EE156
:1026100090E069830E94F312698184B1806A84B971
:102620002698812F837080656C7A862B8CBD81E023
:1026300012FF80E08DBD81E090E00E94A10F219605
:10264000E3E00C94EF130F931F93082F162F0CB495
:1026500006FC04C080E064E00E94FB120CB404FCA1
:1026600003C08CB580618CBD0EBD03C00CB404FEEC
:102670000BC00DB407FEFACF112321F0812F90E09B
:102680000E94F3128EB501C080E01F910F91089552
:10269000629FD001739FF001829FE00DF11D649F46
:1026A000E00DF11D929FF00D839FF00D749FF00DD2
:1026B000659FF00D9927729FB00DE11DF91F639F73
:1026C000B00DE11DF91FBD01CF0111240895991B23
:1026D00079E004C0991F961708F0961B881F7A9519
:1026E000C9F780950895AA1BBB1B51E107C0AA1F1B
:1026F000BB1FA617B70710F0A61BB70B881F991FA3
:102700005A95A9F780959095BC01CD010895A1E255
:102710001A2EAA1BBB1BFD010DC0AA1FBB1FEE1F5B
:10272000FF1FA217B307E407F50720F0A21BB30BA6
:10273000E40BF50B661F771F881F991F1A9469F722
:1027400060957095809590959B01AC01BD01CF017E
:10275000089597FB092E05260ED057FD04D0D7DF2C
:102760000AD0001C38F450954095309521953F4F84
:102770004F4F5F4F0895F6F790958095709561954E
:102780007F4F8F4F9F4F08952F923F924F925F92AE
:102790006F927F928F929F92AF92BF92CF92DF9271
:1027A000EF92FF920F931F93CF93DF93CDB7DEB7D6
:1027B000CA1BDB0B0FB6F894DEBF0FBECDBF09946A
:1027C0002A88398848885F846E847D848C849B84C1
:1027D000AA84B984C884DF80EE80FD800C811B81CF
:1027E000AA81B981CE0FD11D0FB6F894DEBF0FBEFE
:1027F000CDBFED010895CF93DF93AC0182309105F9
:1028000010F442E050E0E091D002F091D10220E0DB
:1028100030E0A0E0B0E024C080819181841795076A
:10282000D0F08417950771F482819381109729F075
:1028300013969C938E9312972CC09093D102809301
:10284000D00227C02115310519F08217930718F41B
:102850009C01BD01EF0192818381DF01E92FF82FF7
:102860003097D1F621153105F9F0C901841B950B7C
:102870008430910580F48A819B816115710521F076
:10288000FB019383828304C09093D1028093D00292
:10289000FE01329642C0FE01E80FF91F41935193A9
:1028A00002979983888339C08091CE029091CF029C
:1028B000009741F480912702909128029093CF02D3
:1028C0008093CE02209125023091260221153105F8
:1028D00041F42DB73EB78091290290912A02281B1E
:1028E000390BE091CE02F091CF02E217F30798F492
:1028F0002E1B3F0B2417350770F0CA0102962817CC
:10290000390748F08E0F9F1F9093CF028093CE021D
:102910004193519302C0E0E0F0E0CF01DF91CF910D
:1029200008950F931F93CF93DF939C01009709F4B1
:102930008CC0DC01129713961C921E921297609124
:10294000D0027091D1026115710589F48D919C912D
:102950001197820F931F2091CE023091CF0228173A
:10296000390769F5B093CF02A093CE026EC0FB0188
:1029700040E050E001C0FC01EA17FB0730F482811F
:102980009381AF010097B9F71FC0E9012297FB833C
:10299000EA8308811981C901800F911F8E179F0753
:1029A00059F480819181800F911F029699838883C9
:1029B000828193819B838A834115510529F4B093C9
:1029C000D102A093D00241C0FA01B383A283C19186
:1029D000D191EC0FFD1FAE17BF0781F4F901929161
:1029E00082918C0F9D1F0296DA0111969C938E9313
:1029F0008281938113969C938E931297E0E0F0E08E
:102A000002C0FB01BC01DB0112968D919C911397D2
:102A10000097B9F7CB0102962D913C911197820F47
:102A2000931F2091CE023091CF022817390769F405
:102A3000309729F41092D1021092D00202C0138272
:102A400012827093CF026093CE02DF91CF911F91DB
:102A50000F910895FB01DC0102C005900D924150D9
:0A2A60005040D8F70895F894FFCF16
:102A6A0042797465205265636569766564005258D7
:102A7A003A2000526F626F74204472756D6D6572F0
:102A8A000053656E642042504D204D6F64650042CC
:102A9A00504D203D2036302D3635004D6F64653A55
:102AAA00200042504D203D2036362D37310042500D
:102ABA004D203D2037322D37370042504D203D20E2
:102ACA0037382D38330042504D203D2038342D38C8
:102ADA00390042504D203D2039302D3935004250C1
:102AEA004D203D2039362D3130310042504D203DA8
:102AFA00203130322D3130370042504D203D2031C7
:102B0A0030382D3131330042504D203D203131349F
:102B1A002D3131390054583A200044656C617920CE
:102B2A005570004D696C6C697365636F6E64733AB6
:102B3A000044656C617920446F776E0001F4010AE4
:102B4A00000B0C0210000000000000000000000052
:102B5A00000000000000000000010000000000006A
:102B6A0000000001040400D007F4010F009C01B525
:102B7A0001CF01EA0107022602470269028E02B565
:0C2B8A0002DE020A030000D2022000005C
:00000001FF
