:100000000C948F000C94AE000C94AE000C94AE00D7
:100010000C94AE000C94AE000C94AE000C94AE00A8
:100020000C94AE000C94AE000C94AE000C942C1406
:100030000C94EF100C94AE000C94FD110C9463170B
:100040000C94AE000C94AE000C94AE000C94AE0078
:100050000C94E60D0C94F90F0C94AE000C94AE00C9
:100060000C94AE000C94AE000C94AE000C94AE0058
:100070000C94110E0C9422100C94AE000C94AE0053
:100080000C94AE000C94AE000C94AE00E30091030F
:1000900091039103910391039103910391039103C0
:1000A00091039103910391039103910391039103B0
:1000B00091039103910391039103910391039103A0
:1000C0009103910391039103910391039103910390
:1000D00091039103910391039103F0000701210122
:1000E0003B0155016F018901A301BD01D701F10158
:1000F0000B0225023F02590273028D02A702C102C0
:10010000DB02F5020F03290343035D037703526FFC
:10011000626F74732052756C65210D0A0000112402
:100120001FBECFEFD0E4DEBFCDBF13E0A0E0B1E053
:10013000EEEBF4E300E00BBF02C007900D92A63097
:10014000B107D9F713E0A6E0B3E001C01D92AE3AC3
:10015000B107E1F70E94B6030C945D1A0C940000FD
:100160008091B4028F5F8093B402089502C00E9410
:10017000C00F82E00E94EA0B8823C9F30895CF9351
:10018000C82F0E94FD0A80E091E00E94140B80E0DD
:1001900061E00E94940B8EE091E00E94140B8EEEC1
:1001A00092E00E9474148C2F90E0CA9781349105DC
:1001B00008F0B7C28A5B9F4FFC01EE0FFF1F05904E
:1001C000F491E02D09948091060390910703019624
:1001D00090930703809306038AE30E947E0AA5C2D8
:1001E00010920B0310920A0360E070E0CB010E94B2
:1001F000710B84E690E00E94741480910603909144
:100200000703019690930703809306038EC281E053
:1002100090E090930B0380930A0361E070E080E02C
:1002200090E00E94710B84E690E00E94741480912B
:1002300006039091070301969093070380930603AA
:1002400074C282E090E090930B0380930A0362E013
:1002500070E080E090E00E94710B84E690E00E94E4
:1002600074148091060390910703019690930703FD
:10027000809306035AC283E090E090930B0380932F
:100280000A0363E070E080E090E00E94710B84E676
:1002900090E00E94741480910603909107030196E8
:1002A000909307038093060340C284E090E090930C
:1002B0000B0380930A0364E070E080E090E00E940A
:1002C000710B84E690E00E94741480910603909173
:1002D00007030196909307038093060326C285E0E7
:1002E00090E090930B0380930A0365E070E080E058
:1002F00090E00E94710B84E690E00E94741480915B
:1003000006039091070301969093070380930603D9
:100310000CC286E090E090930B0380930A0366E0A2
:1003200070E080E090E00E94710B84E690E00E9413
:10033000741480910603909107030196909307032C
:1003400080930603F2C187E090E090930B038093C3
:100350000A0367E070E080E090E00E94710B84E6A1
:1003600090E00E9474148091060390910703019617
:100370009093070380930603D8C188E090E09093A0
:100380000B0380930A0368E070E080E090E00E9435
:10039000710B84E690E00E947414809106039091A2
:1003A000070301969093070380930603BEC189E07B
:1003B00090E090930B0380930A0369E070E080E083
:1003C00090E00E94710B84E690E00E94741480918A
:1003D0000603909107030196909307038093060309
:1003E000A4C18AE090E090930B0380930A036AE033
:1003F00070E080E090E00E94710B84E690E00E9443
:10040000741480910603909107030196909307035B
:10041000809306038AC18BE090E090930B03809356
:100420000A036BE070E080E090E00E94710B84E6CC
:1004300090E00E9474148091060390910703019646
:10044000909307038093060370C18CE090E0909333
:100450000B0380930A036CE070E080E090E00E9460
:10046000710B84E690E00E947414809106039091D1
:1004700007030196909307038093060356C18DE00E
:1004800090E090930B0380930A036DE070E080E0AE
:1004900090E00E94710B84E690E00E9474148091B9
:1004A0000603909107030196909307038093060338
:1004B0003CC18EE090E090930B0380930A036EE0C2
:1004C00070E080E090E00E94710B84E690E00E9472
:1004D000741480910603909107030196909307038B
:1004E0008093060322C18FE090E090930B038093EA
:1004F0000A036FE070E080E090E00E94710B84E6F8
:1005000090E00E9474148091060390910703019675
:10051000909307038093060308C180E190E09093D5
:100520000B0380930A0360E170E080E090E00E949A
:10053000710B84E690E00E94741480910603909100
:10054000070301969093070380930603EEC081E1B1
:1005500090E090930B0380930A0361E170E080E0E8
:1005600090E00E94710B84E690E00E9474148091E8
:100570000603909107030196909307038093060367
:10058000D4C082E190E090930B0380930A0362E170
:1005900070E080E090E00E94710B84E690E00E94A1
:1005A00074148091060390910703019690930703BA
:1005B00080930603BAC083E190E090930B0380938D
:1005C0000A0363E170E080E090E00E94710B84E632
:1005D00090E00E94741480910603909107030196A5
:1005E0009093070380930603A0C084E190E090936A
:1005F0000B0380930A0364E170E080E090E00E94C6
:10060000710B84E690E00E9474148091060390912F
:1006100007030196909307038093060386C085E144
:1006200090E090930B0380930A0365E170E080E013
:1006300090E00E94710B84E690E00E947414809117
:100640000603909107030196909307038093060396
:100650006CC086E190E090930B0380930A0366E1FF
:1006600070E080E090E00E94710B84E690E00E94D0
:1006700074148091060390910703019690930703E9
:100680008093060352C087E190E090930B03809320
:100690000A0367E170E080E090E00E94710B84E65D
:1006A00090E00E94741480910603909107030196D4
:1006B000909307038093060338C088E190E09093FD
:1006C0000B0380930A0368E170E080E090E00E94F1
:1006D000710B84E690E00E9474148091060390915F
:1006E0000703019690930703809306031EC089E1D8
:1006F00090E090930B0380930A0369E170E080E03F
:1007000090E00E94710B84E690E00E947414809146
:1007100006039091070301969093070380930603C5
:1007200004C00E94B600C0937603CF910895CF9382
:10073000DF93C4E5D3E010C0FE01E90FF11D808115
:100740000E94BF0080910C038F3119F410920C03AA
:1007500003C08F5F80930C0382E00E94DA0B9091BC
:100760000C03891749F7DF91CF91089587EB92E049
:1007700062E00E94C61380E066E970E00E942114E6
:1007800081E066E970E00E94211482E066E970E091
:100790000E94211483E066E970E00E94211480E049
:1007A00060E476E00E94FA1381E068E077E00E945E
:1007B000FA1382E060EB74E00E94FA1383E068E9C8
:1007C00078E00E94FA130E94FD0A83E191E00E9402
:1007D000140B80E061E00E94940B81E291E00E94A2
:1007E000140B80ED97E00E94741482E040E855E21B
:1007F00060E070E00E94050F82E064E573E040E293
:100800000E94E30D0F2EF3E1CF2EF1E0DF2EF02D4D
:100810000F2EF7E7AF2EF2E0BF2EF02D0F2EF0E7F0
:100820004F2EF2E05F2EF02DCBE3D1E00F2EFCE354
:100830002F2EF2E03F2EF02D0F2EF0E26F2EF2E081
:100840007F2EF02D0F2EF2E18F2EF2E09F2EF02D55
:1008500006E713E00F2EFCE0EF2EFF24F02DE00E54
:10086000F11E0E94C00F809106039091070384300F
:10087000910514F40E9497038091080380FF26C01D
:100880006091B90281E070E00E9421146091B90288
:1008900083E070E00E94211481E06FEE76E00E9418
:1008A000FA1383E06CE677E00E94FA130E94441A80
:1008B00080FF06C083E06CE677E00E94FA1326C052
:1008C00083E066E678E00E94FA1320C06091B902E6
:1008D00081E070E00E9421146091B90283E070E031
:1008E0000E94211481E06EE977E00E94FA130E94D1
:1008F000441A80FF06C083E066E678E00E94FA139F
:1009000005C083E06CE677E00E94FA13809108034B
:1009100090910903019690930903809308038091B5
:100920000A0390910B03009751F50E94FD0A8FE294
:1009300091E00E94140B80E061E00E94940BCE01D4
:100940000E94140B60910A0370910B03882777FDB6
:100950008095982F0E94710B98B180E1892788B902
:100960003C9A84EF91E09093B6028093B50288ECB4
:100970008093B902109207031092060377C4813066
:10098000910551F50E94FD0A82E491E00E94140B4A
:1009900080E061E00E94940BCE010E94140B6091F4
:1009A0000A0370910B03882777FD8095982F0E948A
:1009B000710B98B180E1892788B93C9A84EE91E067
:1009C0009093B6028093B50288EC8093B90210929E
:1009D0000703109206034AC48230910551F50E9424
:1009E000FD0A8EE491E00E94140B80E061E00E9419
:1009F000940BCE010E94140B60910A0370910B03BB
:100A0000882777FD8095982F0E94710B98B180E11F
:100A1000892788B93C9A8EEC91E09093B602809336
:100A2000B50288EC8093B902109207031092060376
:100A30001DC48330910551F50E94FD0A8AE591E0BD
:100A40000E94140B80E061E00E94940BCE010E9492
:100A5000140B60910A0370910B03882777FD809532
:100A6000982F0E94710B98B180E1892788B93C9A30
:100A700089EB91E09093B6028093B50288EC809365
:100A8000B9021092070310920603F0C38430910557
:100A900051F50E94FD0A86E691E00E94140B80E069
:100AA00061E00E94940BCE010E94140B60910A0336
:100AB00070910B03882777FD8095982F0E94710B0A
:100AC00098B180E1892788B93C9A8DEA91E09093AA
:100AD000B6028093B50288EC8093B90210920703A6
:100AE00010920603C3C38530910551F50E94FD0A9B
:100AF00082E791E00E94140B80E061E00E94940B79
:100B0000CE010E94140B60910A0370910B03882799
:100B100077FD8095982F0E94710B98B180E189270D
:100B200088B93C9A81EA91E09093B6028093B5022D
:100B300088EC8093B902109207031092060396C3C3
:100B40008630910551F50E94FD0A8EE791E00E94E2
:100B5000140B80E061E00E94940BCE010E94140B04
:100B600060910A0370910B03882777FD8095982F79
:100B70000E94710B98B180E1892788B93C9A80E97D
:100B800091E09093B6028093B50288EC8093B9020D
:100B9000109207031092060369C38730910551F53F
:100BA0000E94FD0A8AE891E00E94140B80E061E057
:100BB0000E94940BCE010E94140B60910A03709165
:100BC0000B03882777FD8095982F0E94710B98B1B1
:100BD00080E1892788B93C9A81E891E09093B60238
:100BE0008093B50288EC8093B902109207031092AB
:100BF00006033CC38830910551F50E94FD0A86E941
:100C000091E00E94140B80E061E00E94940BCE0101
:100C10000E94140B60910A0370910B03882777FDE3
:100C20008095982F0E94710B98B180E1892788B92F
:100C30003C9A87E791E09093B6028093B50288ECE6
:100C40008093B90210920703109206030FC38930F4
:100C5000910551F50E94FD0A82EA91E00E94140B71
:100C600080E061E00E94940BCE010E94140B609121
:100C70000A0370910B03882777FD8095982F0E94B7
:100C8000710B98B180E1892788B93C9A8EE691E092
:100C90009093B6028093B50288EC8093B9021092CB
:100CA000070310920603E2C28A30910551F50E94B3
:100CB000FD0A8EEA91E00E94140B80E061E00E9440
:100CC000940BCE010E94140B60910A0370910B03E8
:100CD000882777FD8095982F0E94710B98B180E14D
:100CE000892788B93C9A81E691E09093B602809377
:100CF000B50288EC8093B9021092070310920603A4
:100D0000B5C28B30910551F50E94FD0A8AEB91E046
:100D10000E94140B80E061E00E94940BCE010E94BF
:100D2000140B60910A0370910B03882777FD80955F
:100D3000982F0E94710B98B180E1892788B93C9A5D
:100D400085E591E09093B6028093B50288EC80939C
:100D5000B902109207031092060388C28C309105E5
:100D600051F50E94FD0A86EC91E00E94140B80E090
:100D700061E00E94940BCE010E94140B60910A0363
:100D800070910B03882777FD8095982F0E94710B37
:100D900098B180E1892788B93C9A8DE491E09093DD
:100DA000B6028093B50288EC8093B90210920703D3
:100DB000109206035BC28D30910551F50E94FD0A29
:100DC00082ED91E00E94140B80E061E00E94940BA0
:100DD000CE010E94140B60910A0370910B038827C7
:100DE00077FD8095982F0E94710B98B180E189273B
:100DF00088B93C9A86E491E09093B6028093B5025C
:100E000088EC8093B90210920703109206032EC259
:100E10008E30910551F50E94FD0A8EED91E00E9401
:100E2000140B80E061E00E94940BCE010E94140B31
:100E300060910A0370910B03882777FD8095982FA6
:100E40000E94710B98B180E1892788B93C9A8CE3A4
:100E500091E09093B6028093B50288EC8093B9023A
:100E6000109207031092060301C28F30910551F5CD
:100E70000E94FD0A8AEE91E00E94140B80E061E07E
:100E80000E94940BCE010E94140B60910A03709192
:100E90000B03882777FD8095982F0E94710B98B1DE
:100EA00080E1892788B93C9A82E391E09093B60269
:100EB0008093B50288EC8093B902109207031092D8
:100EC0000603D4C18031910551F50E94FD0A86EFD9
:100ED00091E00E94140B80E061E00E94940BCE012F
:100EE0000E94140B60910A0370910B03882777FD11
:100EF0008095982F0E94710B98B180E1892788B95D
:100F00003C9A8CE291E09093B6028093B50288EC13
:100F10008093B9021092070310920603A7C1813192
:100F2000910551F50E94FD0A84E092E00E94140BA5
:100F300080E061E00E94940BCE010E94140B60914E
:100F40000A0370910B03882777FD8095982F0E94E4
:100F5000710B98B180E1892788B93C9A86E291E0CB
:100F60009093B6028093B50288EC8093B9021092F8
:100F70000703109206037AC18231910549F50E9458
:100F8000FD0AC4010E94140B80E061E00E94940BF2
:100F9000CE010E94140B60910A0370910B03882705
:100FA00077FD8095982F0E94710B98B180E1892779
:100FB00088B93C9A8EE191E09093B6028093B50295
:100FC00088EC8093B90210920703109206034EC179
:100FD0008331910549F50E94FD0AC3010E94140B5B
:100FE00080E061E00E94940BCE010E94140B60919E
:100FF0000A0370910B03882777FD8095982F0E9434
:10100000710B98B180E1892788B93C9A86E191E01B
:101010009093B6028093B50288EC8093B902109247
:1010200007031092060322C18431910551F50E94F5
:10103000FD0A8EE292E00E94140B80E061E00E94C3
:10104000940BCE010E94140B60910A0370910B0364
:10105000882777FD8095982F0E94710B98B180E1C9
:10106000892788B93C9A81E191E09093B6028093F8
:10107000B50288EC8093B902109207031092060320
:10108000F5C08531910549F50E94FD0AC1010E9414
:10109000140B80E061E00E94940BCE010E94140BBF
:1010A00060910A0370910B03882777FD8095982F34
:1010B0000E94710B98B180E1892788B93C9A8CE035
:1010C00091E09093B6028093B50288EC8093B902C8
:1010D0001092070310920603C9C08631910551F59D
:1010E0000E94FD0A8AE492E00E94140B80E061E015
:1010F0000E94940BCE010E94140B60910A03709120
:101100000B03882777FD8095982F0E94710B98B16B
:1011100080E1892788B93C9A85E091E09093B602F6
:101120008093B50288EC8093B90210920703109265
:1011300006039CC08731910551F50E94FD0A88E5A0
:1011400092E00E94140B80E061E00E94940BCE01BB
:101150000E94140B60910A0370910B03882777FD9E
:101160008095982F0E94710B98B180E1892788B9EA
:101170003C9A8EEF90E09093B6028093B50288EC93
:101180008093B90210920703109206036FC0883152
:10119000910551F50E94FD0A86E692E00E94140B2B
:1011A00080E061E00E94940BCE010E94140B6091DC
:1011B0000A0370910B03882777FD8095982F0E9472
:1011C000710B98B180E1892788B93C9A8AEF90E049
:1011D0009093B6028093B50288EC8093B902109286
:1011E00007031092060342C08931910529F50E9438
:1011F000FD0AC2010E94140B80E061E00E94940B82
:10120000CE010E94140B60910A0370910B03882792
:1012100077FD8095982F0E94710B88EC90E00E94DA
:101220007414109207031092060381E090E09093EB
:101230000903809308031AC098B180E1892788B90F
:101240003C9A0E94FD0AC6010E94140B80E061E0F6
:101250000E94940BC5010E94140B84EF91E09093BF
:10126000B6028093B50288EC8093B9028091B502F2
:101270009091B6020E94741488E00E94D70B8823D4
:1012800069F10E94B600C8016EE071E04CE050E0E8
:101290000E94541A82E0B8014CE00E94F60FF70158
:1012A00010820E94FD0A80E061E00E94940B84E8B5
:1012B00092E00E94140B6091B5027091B60280E03A
:1012C00090E00E94710B88EE93E00E9474141092DB
:1012D00007031092060388E00E94C30B80E20E947D
:1012E000D70B882389F10E94B6000E94FD0A81E98C
:1012F00092E00E94140B80910A0390910B038A31B3
:1013000091052CF4019690930B0380930A0380E0DF
:1013100061E00E94940B8DE992E00E94140B6091B1
:101320000A0370910B03882777FD8095982F0E9400
:10133000710B88EE93E00E947414109207031092D0
:10134000060380E20E94C30B84E00E94D70B88232F
:1013500009F487CA0E94B6000E94FD0A86EA92E05C
:101360000E94140B80910A0390910B031816190622
:101370002CF4019790930B0380930A0380E061E0C3
:101380000E94940B8DE992E00E94140B60910A0375
:1013900070910B03882777FD8095982F0E94710B21
:1013A00088EE93E00E9474141092070310920603D3
:1013B00084E00E94C30B55CA81E090E06F9364E023
:1013C0006A95F1F76F910197C9F708950F931F93ED
:1013D000CF93DF9317B13D982898299AC0E0D0E0C9
:1013E0000E94DC092A9A0E94DC0906B12A980E9410
:1013F000DC092A9A0E94DC092A98249605FF10C06D
:101400009E0140E050E08091110390911203A09161
:101410001303B0911403281739074A075B0700F339
:101420009E0140E050E08091110390911203A09141
:101430001303B0911403281739074A075B0728F0F4
:1014400082E390E0A0E0B0E004C080E395E7A0E094
:10145000B0E08093110390931203A0931303B09311
:10146000140317B9DF91CF911F910F91089528B1FF
:1014700090E08F709070880F991F880F991F237CC0
:10148000282B28B92A9A0E94DC092A980E94DC0994
:101490000895A2E0B0E0EFE4FAE00C949618182F5B
:1014A0004A8369830E94C70A0E94E609F7B008B11F
:1014B000299869814A81662311F0289A01C02898E9
:1014C00087B18C6387B9413029F0812F82958F7065
:1014D0000E94370A812F8F700E94370AF7B808B927
:1014E0002296E5E00C94B21860E042E00E94490ABE
:1014F000089561E042E00E94490A08950E94790A35
:10150000089560E041E00E94490A08953D98459A97
:1015100080E395E7A0E0B0E080931103909312037D
:10152000A0931303B0931403209A219A229A8EE178
:1015300090E00E94741483E00E94810A86E090E0AB
:101540000E94741483E00E94810A82E090E00E946D
:10155000741483E00E94810A82E090E00E94741477
:1015600082E00E94810A82E090E00E94741488E286
:101570000E94740A88E00E94740A81E00E94740A42
:1015800086E00E94740A8CE00E94740A089580919B
:101590001503882329F481E0809315030E94860AAD
:1015A000089581E00E94740A80910D0390910E03CA
:1015B000009711F1A0E0B0E208C0E0910D03F091B6
:1015C0000E03E20FF31FB083AF5F2A2F30E080914C
:1015D000BA0290E001976091BB0270E0869FA00183
:1015E000879F500D969F500D1124241735072CF31B
:1015F0001092100310920F0308950E94D10A0895CB
:10160000EF92FF92CF93DF93E82EE7017E01F92E50
:10161000E70102C00E94790A89918823D9F7DF91F6
:10162000CF91FF90EF9008950E94000B0895AAE0DB
:10163000B0E0EDE1FBE00C9491189B01AC011AE0E5
:101640006AE0C62ED12CE12CF12C5E010894A11C7D
:10165000B11C022FCA01B901A70196010E944C18C2
:101660001150F501E10FF11D005D922F990F892FA7
:10167000880F880F890F081B00832115310541054C
:10168000510539F708C0F601E10FF11D80810E9474
:10169000790A1F5F04C06E010894C11CD11C1A3066
:1016A00090F32A96EAE00C94AD18EF92FF920F9314
:1016B0001F937B018C0197FF0BC010950095F09450
:1016C000E094E11CF11C011D111D8DE20E94790ABC
:1016D000C801B7010E94170B1F910F91FF90EF9067
:1016E00008950E94550B0895A5E0B0E0EAE7FBE0FD
:1016F0000C949818182F80E8898380EC8A8384E9F9
:101700008B8384ED8C83FE01E60FF11D8181810FB7
:101710006D830E94740A109310036D8160930F0310
:101720002596E3E00C94B4180E94740B089587B1D9
:10173000837D87B988B18C6288B985E090E06F932A
:1017400064E06A95F1F76F910197C9F70895809168
:101750001603882329F481E0809316030E94970BD7
:1017600008951F93182F0E94A70B86B18123E9F3D8
:101770008AE090E00E94741486B18123B1F386B1AF
:1017800081231F9108950E94B10B0895A1E0B0E05C
:10179000ECECFBE00C94991889830E94A70B96B19E
:1017A0009095898189232196E2E00C94B5180E94D6
:1017B000C60B0895282F30E0F901EE0FFF1F43E01C
:1017C000220F331F4A95E1F7E20FF31FE454FD4F58
:1017D00082810895282F30E0F901EE0FFF1F73E09A
:1017E000220F331F7A95E1F7E20FF31FE454FD4F08
:1017F0004181282F30E0F901EE0FFF1F53E0220F47
:10180000331F5A95E1F7E20FF31FE454FD4F81E0D7
:101810009381491380E00895282F30E0F901EE0FFD
:10182000FF1FB3E0220F331FBA95E1F7E20FF31F5A
:10183000E454FD4F408551854115510509F452C0CE
:10184000282F30E0F901EE0FFF1F73E0220F331F46
:101850007A95E1F7E20FF31FE454FD4F7281282FD0
:1018600030E0F901EE0FFF1FB3E0220F331FBA95EE
:10187000E1F7E20FF31FE454FD4F9481791790F5DF
:10188000282F30E0F901EE0FFF1F73E0220F331F06
:101890007A95E1F7E20FF31FE454FD4F9281490F6F
:1018A000511DFA016083282F30E0F901EE0FFF1F70
:1018B00053E0220F331F5A95E1F7E20FF31FE45470
:1018C000FD4F92819F5F282F30E0F901EE0FFF1F3F
:1018D000B3E0220F331FBA95E1F7E20FF31FE45490
:1018E000FD4F9283282F30E0F901EE0FFF1F73E0C8
:1018F000220F331F7A95E1F7E20FF31FE454FD4FF7
:101900004281282F30E0F901EE0FFF1F53E0220F34
:10191000331F5A95E1F7E20FF31FE454FD4F948112
:10192000491701F5282F30E0F901EE0FFF1F93E072
:10193000220F331F9A95E1F7E20FF31FE454FD4F96
:101940009581992379F0282F30E0F901EE0FFF1FE0
:10195000B3E0220F331FBA95E1F7E20FF31FE4540F
:10196000FD4F128208950F931F93182F823009F4B0
:1019700075C0882319F4E1ECF0E002C0E9ECF0E076
:1019800080818F778083812F90E0FC01EE0FFF1F15
:1019900003E0880F991F0A95E1F7E80FF91FE45457
:1019A000FD4F808591850097A9F1212F30E0F90145
:1019B000EE0FFF1FA3E0220F331FAA95E1F7E20FFE
:1019C000F31FE454FD4F9281212F30E0F901EE0F17
:1019D000FF1F63E0220F331F6A95E1F7E20FF31F49
:1019E000E454FD4F84819817A8F4112319F4E0EC16
:1019F000F0E002C0E8ECF0E0808187FF0BC011232B
:101A000019F4E6ECF0E002C0EEECF0E06081812F2A
:101A10000E940C0C212F30E0F901EE0FFF1F43E074
:101A2000220F331F4A95E1F7E20FF31FE454FD4FF5
:101A30008081882309F059C0112319F4E1ECF0E00A
:101A400002C0E9ECF0E08081806880834EC0809124
:101A5000D502882319F01092D20247C08091D80293
:101A60009091D902009709F440C09091D2028091E0
:101A7000D4029817D0F5809123038823A9F40E94FB
:101A80007C148093230310E00BC00E947714E02F96
:101A9000F0E03197E11BF109EC5DFC4F80831F5FA3
:101AA00000912303101788F3A0912303AA23E9F0E0
:101AB0008091D202E091D802F091D902E80FF11D95
:101AC000A150A0932303B0E0AC5DBC4F8C91808308
:101AD0008091D2028F5F8093D2029091D202809146
:101AE000D402981709F0BACFB2CF1F910F91089581
:101AF000823051F0882319F4E1ECF0E002C0E9EC07
:101B0000F0E090819F779083A82FB0E0FD01EE0F69
:101B1000FF1F53E0AA0FBB1F5A95E1F7EA0FFB1F07
:101B2000E454FD4F71876087682F70E0FB01EE0F72
:101B3000FF1F93E0660F771F9A95E1F7E60FF71FF7
:101B4000E454FD4F1282682F70E0FB01EE0FFF1F7F
:101B5000A3E0660F771FAA95E1F7E60FF71FE4549D
:101B6000FD4F4483482F50E0FA01EE0FFF1F63E062
:101B7000440F551F6A95E1F7E40FF51FE454FD4F3C
:101B800025838230D9F0282F30E0F901EE0FFF1FB6
:101B900043E0220F331F4A95E1F7E20FF31FE454AD
:101BA000FD4F9081992351F4882319F4E1ECF0E082
:101BB00002C0E9ECF0E0808180688083089521E034
:101BC0000E94780D08950E94DF0D08951F920F92D4
:101BD0000FB60F920BB60F9211242F933F934F9392
:101BE0005F936F937F938F939F93AF93BF93EF9385
:101BF000FF936091C60080E00E940C0CFF91EF9172
:101C0000BF91AF919F918F917F916F915F914F9114
:101C10003F912F910F900BBE0F900FBE0F901F9012
:101C200018951F920F920FB60F920BB60F921124B8
:101C30002F933F934F935F936F937F938F939F93D4
:101C4000AF93BF93EF93FF936091CE0081E00E942A
:101C50000C0CFF91EF91BF91AF919F918F917F916C
:101C60006F915F914F913F912F910F900BBE0F900D
:101C70000FBE0F901F901895882319F4E1ECF0E047
:101C800002C0E9ECF0E080818062808308958823BF
:101C900019F4E1ECF0E002C0E9ECF0E080818F7D26
:101CA00080830895282F30E0F901EE0FFF1F93E0A5
:101CB000220F331F9A95E1F7E20FF31FE454FD4F13
:101CC0002681378121153105A1F1282F30E0F90156
:101CD000EE0FFF1FA3E0220F331FAA95E1F7E20FDB
:101CE000F31FE454FD4F4181282F30E0F901EE0F3E
:101CF000FF1F63E0220F331F6A95E1F7E20FF31F26
:101D0000E454FD4F93814917A0F4282F30E0F901E6
:101D1000EE0FFF1F43E0220F331F4A95E1F7E20F5A
:101D2000F31FE454FD4F9081992319F40E943C0E57
:101D300008950E94470E0895823031F1282F30E037
:101D4000F901EE0FFF1F53E0220F331F5A95E1F701
:101D5000E20FF31FE454FD4F9081992349F4882347
:101D600019F4E1ECF0E002C0E9ECF0E098E908C019
:101D7000882319F4E1ECF0E002C0E9ECF0E098E12E
:101D800090830E94520E78940895882319F0813030
:101D900041F404C080E00E949C0E089581E00E94FE
:101DA0009C0E0895A0E0B0E0E8EDFEE00C949418DD
:101DB000D82E7A018B010E94C50E8D2D823001F143
:101DC000DD2019F4C4ECD0E002C0CCECD0E0C801B6
:101DD000B70128EF3FEF4FEF5FEF0E940D18605003
:101DE000734D8E4C9E4FA8019701E4E0220F331FE4
:101DF000441F551FEA95D1F70E944C183983288358
:101E0000CDB7DEB7E7E00C94B0180E94D20E08956B
:101E1000282F30E0F901EE0FFF1F73E0220F331F70
:101E20007A95E1F7E20FF31FE454FD4F46815781A5
:101E30004115510509F465C0282F30E0F901EE0F76
:101E4000FF1F93E0220F331F9A95E1F7E20FF31F74
:101E5000E454FD4F6181282F30E0F901EE0FFF1FA0
:101E6000A3E0220F331FAA95E1F7E20FF31FE4541A
:101E7000FD4F9381691708F044C0882319F4E0EC02
:101E8000F0E002C0E8ECF0E0908195FF3AC08823D2
:101E900019F4A6ECB0E002C0AEECB0E0282F30E0C0
:101EA000F901EE0FFF1F63E0220F331F6A95E1F780
:101EB000E20FF31FE454FD4F9181490F511DFA01C8
:101EC00090819C93282F30E0F901EE0FFF1F93E0E3
:101ED000220F331F9A95E1F7E20FF31FE454FD4FF1
:101EE00091819F5F282F30E0F901EE0FFF1FA3E0E3
:101EF000220F331FAA95E1F7E20FF31FE454FD4FC1
:101F000091830E94520E08951F93182F823031F052
:101F10000E94470E812F0E94080F1DC08091D6029B
:101F20009091D7020097B9F03091D1022091D3025D
:101F3000321788F406C08091D1028F5F8093D1025E
:101F4000EDCF2091D102820F911DFC0180810E9472
:101F50008314882381F71F91089580E00E94840FE5
:101F600081E00E94840F82E00E94840F80E00E9442
:101F7000B30C81E00E94B30C82E00E94B30C089580
:101F80000E94AD0F0895282F30E0F901EE0FFF1FDA
:101F900093E0220F331F9A95E1F7E20FF31FE45409
:101FA000FD4F77836683282F30E0F901EE0FFF1F86
:101FB000A3E0220F331FAA95E1F7E20FF31FE454C9
:101FC000FD4F1182282F30E0F901EE0FFF1F63E073
:101FD000220F331F6A95E1F7E20FF31FE454FD4F20
:101FE0004383823011F00E94520E08950E94C30F65
:101FF00008951F920F920FB60F920BB60F921124F5
:102000002F933F934F935F936F937F938F939F9300
:10201000AF93BF93EF93FF9380E00E94080FFF916F
:10202000EF91BF91AF919F918F917F916F915F9150
:102030004F913F912F910F900BBE0F900FBE0F90BD
:102040001F9018951F920F920FB60F920BB60F921A
:1020500011242F933F934F935F936F937F938F93AD
:102060009F93AF93BF93EF93FF9381E00E94080F7C
:10207000FF91EF91BF91AF919F918F917F916F9160
:102080005F914F913F912F910F900BBE0F900FBE1C
:102090000F901F901895FC011182108213821282FA
:1020A000158214821682683068F489E290E0918388
:1020B00080838BE290E0938382838AE290E0958331
:1020C000848323C0603180F483E290E09183808335
:1020D00085E290E09383828384E290E09583848319
:1020E00070E06850704011C06831C0F486E290E042
:1020F0009183808388E290E09383828387E290E0FB
:102100009583848370E06051704081E090E002C06C
:10211000880F991F6A95E2F7868308956032C0F4AC
:1021200080E290E09183808382E290E093838283D7
:1021300081E290E0958384832FE130E0261B310912
:1021400081E090E002C0880F991F2A95E2F786830C
:102150000895FC01A481B5818681662321F09C91BC
:10216000982B9C9308959C91809589238C93089536
:10217000FC016F3F31F4A281B3818C919681892754
:102180000CC0A281B3818681662321F09C91982B9B
:102190009C9308959C91809589238C930895A7E042
:1021A000B0E0E5EDF0E10C9495187C018E010F5F35
:1021B0001F4FC8010E944B10C80160E00E94B81078
:1021C000C80161E00E94A9108B819C81F701918375
:1021D00080838F8182832796E6E00C94B1181F924A
:1021E0000F920FB60F920BB60F9211241F932F93DD
:1021F0003F934F935F936F937F938F939F93AF938F
:10220000BF93EF93FF9380913B038F5F8770809321
:102210003B0340E053E021C090E020913C0330912B
:102220003D0380FF0BC0459FF0011124E20FF31F17
:10223000A081B1812C913281232B0BC0459FF001ED
:102240001124E20FF31FA081B1813C9122812095DE
:1022500023232C93959587954F5F909138034917C9
:10226000D8F210913B031F5F177080913903181744
:1022700028F0109289001092880049C0212F30E088
:10228000220F331FE0912C03F0912D03E20FF31F77
:1022900040815181A0913403B0913503A20FB31F47
:1022A0006D917C9111976115710511F141155105E1
:1022B000F9F0A0913003B0913103A20FB31F8D91BB
:1022C0009C9111970097A1F04817590738F4460FD1
:1022D000571F48175907A8F4CA0113C09C01260FBD
:1022E000371F4217530768F0CA01861B970B09C0B6
:1022F000A0913003B0913103A20FB31F8D919C9137
:1023000011979093890080938800918380838091B6
:102310003A03181728F010928B0010928A0042C0DE
:10232000812F90E0880F991FE0912E03F0912F03E9
:10233000E80FF91F40815181A0913603B091370316
:10234000A80FB91F2D913C911197609132037091A4
:10235000330321153105D1F0860F971FDC018D91D4
:102360009C9111974817590738F4240F351F2817E7
:10237000390790F4C90110C0BC01620F731F4617E2
:10238000570750F0CA01821B930B06C0860F971F98
:10239000DC018D919C91119790938B0080938A0022
:1023A0009183808380913B0390913A03891788F44D
:1023B00093E0899FC0011124E0913E03F0913F0317
:1023C000E80FF91FA081B1819C91828180958923BA
:1023D0008C93FF91EF91BF91AF919F918F917F91DE
:1023E0006F915F914F913F912F911F910F900BBE75
:1023F0000F900FBE0F901F9018951F920F920FB65F
:102400000F920BB60F9211248F939F93AF93BF93AC
:10241000EF93FF9380913B0390913A03891780F4E7
:1024200093E0899FC0011124E0913E03F0913F03A6
:10243000E80FF91FA081B1818C91928189278C933B
:10244000FF91EF91BF91AF919F918F910F900BBE34
:102450000F900FBE0F901F90189580913C039091A4
:102460003D03009731F00E94561910923D031092DF
:102470003C0380912C0390912D03009731F00E9432
:10248000561910922D0310922C03809130039091D5
:102490003103009731F00E945619109231031092C7
:1024A00030038091340390913503009731F00E94FE
:1024B0005619109235031092340380913E03909187
:1024C0003F03009731F00E94561910923F0310927B
:1024D0003E0380912E0390912F03009731F00E94CC
:1024E000561910922F0310922E038091320390916F
:1024F0003303009731F00E94561910923303109263
:1025000032038091360390913703009731F00E9497
:10251000561910923703109236030895A1E0B0E0E7
:10252000E4E9F2E10C948B18982E792E842E652E16
:1025300010926F0010924B0381E08093DA021092A8
:102540004D0310924C0310928100C62E643010F09F
:1025500013E0C12EC092380381E090E00C2C02C041
:10256000880F991F0A94E2F7809339035D98559A72
:1025700082E880938000D22E293010F0B8E0DB2E64
:10258000D0923A030E942D1243E02C2D249FC001CB
:10259000112449830E94C0188C0190933D038093BD
:1025A0003C0380913903482E5524440C551CC2012C
:1025B0000E94C0187C0190932D0380932C03C201CC
:1025C0000E94C0185C019093310380933003C201D4
:1025D0000E94C018909335038093340349810115FC
:1025E000110509F443C0E114F10409F43FC0A1143A
:1025F000B104E1F10097D1F1DD2029F4092D172D67
:10260000EE24FF2446C0ED2DE49FC00111240E945A
:10261000C0188C0190933F0380933E0380913A034E
:10262000482E5524440C551CC2010E94C0187C0140
:1026300090932F0380932E03C2010E94C0185C0167
:102640009093330380933203C2010E94C018909389
:102650003703809336030115110541F0E114F104AD
:1026600029F0A114B10411F0009741F60E942D1237
:1026700081E088C0F80161918F0180913C039091C5
:102680003D038E0D9F1D0E94CF1083E090E0E80E69
:10269000F91E802F89198C1568F360912C037091B5
:1026A0002D03409130035091310320913403309138
:1026B0003503A0E014C08A2F90E0880F991FFB011A
:1026C000E80FF91F11821082FA01E80FF91F118239
:1026D0001082820F931FFC0111821082AF5F8091E4
:1026E0003903A81740F3E82CF62CAA24BB2400E0F9
:1026F00010E029C0F70161917F0180913E03909124
:102700003F03800F911F0E94CF10E0912E03F091A4
:102710002F03EA0DFB1D11821082E0913203F0912C
:102720003303EA0DFB1D11821082E0913603F09114
:102730003703EA0DFB1D118210820D5F1F4F82E0EF
:1027400090E0A80EB91E8E2D88198D1598F2109262
:102750003B0381E18093810088EA91E690938700B2
:10276000809386008FEF86BB80916F00806280939C
:102770006F00DD2029F080916F00846080936F00EE
:10278000789480E02196E0E10C94A71840E050E0B6
:1027900020E00E948E12089590913903891748F520
:1027A00090916F009F7D90936F0090E08770907084
:1027B000880F991FE0913003F0913103E80FF91F62
:1027C000862F972F29E08339920710F082E999E04C
:1027D0009C01220F331F43E0880F991F4A95E1F7B0
:1027E000280F391F3183208380916F00806280938E
:1027F0006F0008950E94CC130895909139038917B2
:10280000F8F490916F009F7D90936F0090E0877037
:102810009070880F991FE0913403F0913503E80F11
:10282000F91F862F972F21E6893A920710F088EA40
:1028300091E69183808380916F00806280936F0026
:1028400008950E94FD1308956F9364E06A95F1F76F
:102850006F910197C9F708952F928F939F932FB689
:10286000809141039091420301968093410390939C
:10287000420390E080914303891F8093430390912A
:1028800049039C5F9093490380914803805197428C
:10289000C0F0909349038093480380914403909142
:1028A00045030196809344039093450390E0809103
:1028B0004603891F8093460380914703891F8093B5
:1028C00047032FBE9F918F912F901895CF93DF9341
:1028D000EC0105C088EE93E00E9424142197209714
:1028E000C9F7DF91CF9108950E94661408958FEF84
:1028F00064E00E94E817089583E867E00E94E81703
:102900000E94771408951F93182F982F9095991F60
:102910009927991F85E8891B65E00E94E817812F98
:102920008F7765E00E94E8171F91089590915003FA
:10293000E0914C03F0914D03992311F0849101C073
:102940008081282F21542A3110F4805E089580322E
:1029500071F420914C0330914D03A9014F5F5F4FFB
:1029600050934D0340934C032115310509F7089509
:10297000EF92FF92CF93DF930E949614C0E0D0E0D5
:102980001BC09E01220F331F93E0CC0FDD1F9A95D1
:10299000E1F7C20FD31F992787FD9095C80FD91F64
:1029A000E09780914C0390914D03019690934D03D5
:1029B00080934C030E949614982F90539A3008F3FA
:1029C000CE01DF91CF91FF90EF90089510926F00AC
:1029D00083E28093800081E18093810010928200E5
:1029E00080E197E2909389008093880010928B0099
:1029F00010928A00549A7894089580914B0388230A
:102A000029F481E080934B030E94E6140895A0E02E
:102A1000B0E0EDE0F5E10C948F188C015B01E42E41
:102A20000E94FD141092DA0217FF04C01F77AAE07B
:102A3000FA2E02C0FF24F394C0908100DD2428EF19
:102A4000C222DD2488EC3F2D389FC001112480175D
:102A50009107D8F4E80167E20131160710F0C0E1F0
:102A6000D7E2BE017695679580E090E060587946A0
:102A700087469F4F9E0140E050E00E944C1889011C
:102A800081E090E0C82AD92A2CC098E2F99E902DC6
:102A9000112480E0892EE4014E01982EE401801675
:102AA000910608F4E801BE01769567959E0140E025
:102AB00050E08F2D8A3039F480E090E0605E7344FE
:102AC00081449F4F06C080E090E060537D4E8C4E65
:102AD0009F4F0E944C18890152E0852E912CC828E6
:102AE000D9282F2D2A3039F4CE0105966AE070E0FE
:102AF0000E943818EB0133E0C83ED30779F0BE01DD
:102B000080E090E0950140E050E00E940D1828EE32
:102B100033E040E050E00E946E1801C09501109231
:102B20006F00C0928100109389000093880040914B
:102B30008800509189006E2D603108F06FE080E1CF
:102B400090E0861B9109BA0102C0769567958A9537
:102B5000E2F770938B0060938A00309353032093C5
:102B6000520386B38FEF86BB81E080936F00CDB7B1
:102B7000DEB7ECE00C94AB189B018F3F11F04423BF
:102B800029F488EE93E0B90140E049C0813130F08A
:102B9000582F5051503618F05FE501C050E0852F96
:102BA0006CE00E942C18A82FB0E0E4EFFFEFAE9F7E
:102BB000B001AF9F700DBE9F700D1124650F711D88
:102BC0006C30710540F4FB01EE0FFF1FEC51FD4F1F
:102BD0006081718102C060E070E0873081F0082E72
:102BE00002C0660F771F0A94E2F7823028F0CB010B
:102BF00005966AE070E00CC0605070480BC0CB01D5
:102C0000B6E0880F991FBA95E1F7029665E070E08B
:102C10000E943818403108F04FE0CB01B9010E9402
:102C200007150895A0E0B0E0E8E1F6E10C948E18F5
:102C3000B090DB0280914E03882361F060914F03D6
:102C4000662341F08FEF70E040E00E94BC151092C7
:102C50004F0334C1C0ECDDE5AA24A39414E0712E27
:102C600000ED17E0B4E0EB2EF12CA4EFCA2EA1E0AA
:102C7000DA2EFFE08F2E912C0E94961420914C03A7
:102C800030914D032F5F3F4F30934D0320934C0302
:102C90008636F1F18736CCF4823609F4AFC083363C
:102CA0007CF48E3349F18F333CF4813209F487C0D0
:102CB0008C3309F09BC022C0813609F097C09BC0BD
:102CC000843601F185360CF51BC08F3609F447C0F8
:102CD000803744F48C3611F18D3661F1873609F076
:102CE00085C019C0843709F444C0863709F460C030
:102CF000823709F07BC039C0B394BECFBA94BCCF41
:102D0000EE2435C0EE2482E07BC0EE2484E078C05F
:102D1000EE2485E075C0EE2487E072C00E94B814EE
:102D2000BC019093DD028093DC028091DE029091E1
:102D3000DF0237C00E9496148C3619F410924E03AD
:102D400004C0A0924E0310924F0380914C039091C7
:102D50004D03019690934D0380934C038DCF0E94B9
:102D6000B814B82E8093DB0287CFEE24E39480E082
:102D700047C00E94B814BC01CE010E943818CB0194
:102D8000880F991F53E0660F771F5A95E1F7860F5A
:102D9000971F9093DF028093DE026091DC027091B6
:102DA000DD020E9438187093E1026093E00264CF64
:102DB0000E94B8149093E3028093E2025DCF709278
:102DC000DB021093DF020093DE02F092DD02E0925C
:102DD000DC02D092E102C092E0029092E302809283
:102DE000E20210924E0344E0B42E46CF10924D03FF
:102DF00010924C0363C0EE2489E002C0EE248BE005
:102E00009CE0B99EB02C1124B80E0E9496148B320F
:102E100011F08332B9F480914C0390914D030196E7
:102E200090934D0380934C03B394EFCF80914C0368
:102E300090914D03019690934D0380934C03BA9467
:102E40000E9496148D3291F3C091E002D091E1027C
:102E50008153883058F4C091DE02D091DF020E9485
:102E6000B814BC01CE010E943818EB018E010BC0D2
:102E700080914C0390914D03019690934D03809364
:102E80004C03C00FD11F169507950E9496148E32E1
:102E900079F380914E03882339F0CE01969587957A
:102EA00080934F03C81BD109EE2011F0BB24BA94C4
:102EB0008B2DBE014091E2020E94BC15CDB7DEB75A
:102EC000EDE00C94AA181F920F920FB60F920BB65A
:102ED0000F9211242F933F934F935F936F937F93A0
:102EE0008F939F93AF93BF93EF93FF938091520380
:102EF000909153039C012150304030935303209311
:102F00005203009711F510926F0078948091810020
:102F1000887F81608093810080E197E290938900AF
:102F20008093880010928B0010928A0081E0809339
:102F3000DA0280914C0390914D03009731F080911B
:102F40005103882311F40E941216FF91EF91BF9153
:102F5000AF919F918F917F916F915F914F913F9131
:102F60002F910F900BBE0F900FBE0F901F901895D2
:102F70006F9364E06A95F1F76F910197C9F708952F
:102F8000A1E0B0E0E6ECF7E10C949818182F249932
:102F900009C02C9907C02C9A8EE190E069830E94A9
:102FA000B817698184B1806A84B92698812F8370AB
:102FB00080656C7A862B8CBD81E012FF80E08DBD30
:102FC00081E090E00E9466142196E3E00C94B4182E
:102FD0000F931F93082F162F0CB406FC04C080E03B
:102FE00064E00E94C0170CB404FC03C08CB580617F
:102FF0008CBD0EBD03C00CB404FE0BC00DB407FEA7
:10300000FACF112321F0812F90E00E94B8178EB5DE
:1030100001C080E01F910F910895629FD001739FBE
:10302000F001829FE00DF11D649FE00DF11D929F64
:10303000F00D839FF00D749FF00D659FF00D9927A3
:10304000729FB00DE11DF91F639FB00DE11DF91FC7
:10305000BD01CF0111240895991B79E004C0991F87
:10306000961708F0961B881F7A95C9F780950895E2
:10307000AA1BBB1B51E107C0AA1FBB1FA617B7079E
:1030800010F0A61BB70B881F991F5A95A9F78095BA
:103090009095BC01CD010895A1E21A2EAA1BBB1B7D
:1030A000FD010DC0AA1FBB1FEE1FFF1FA217B30714
:1030B000E407F50720F0A21BB30BE40BF50B661F2A
:1030C000771F881F991F1A9469F7609570958095EE
:1030D00090959B01AC01BD01CF01089597FB092E8E
:1030E00005260ED057FD04D0D7DF0AD0001C38F4D7
:1030F00050954095309521953F4F4F4F5F4F089524
:10310000F6F790958095709561957F4F8F4F9F4F03
:1031100008952F923F924F925F926F927F928F927B
:103120009F92AF92BF92CF92DF92EF92FF920F9356
:103130001F93CF93DF93CDB7DEB7CA1BDB0B0FB660
:10314000F894DEBF0FBECDBF09942A88398848881D
:103150005F846E847D848C849B84AA84B984C884B3
:10316000DF80EE80FD800C811B81AA81B981CE0FAA
:10317000D11D0FB6F894DEBF0FBECDBFED0108958F
:10318000CF93DF93AC018230910510F442E050E020
:10319000E091AC03F091AD0320E030E0A0E0B0E0BE
:1031A00024C08081918184179507D0F084179507FA
:1031B00071F482819381109729F013969C938E93DA
:1031C00012972CC09093AD038093AC0327C02115B8
:1031D000310519F08217930718F49C01BD01EF0126
:1031E00092818381DF01E92FF82F3097D1F62115E5
:1031F0003105F9F0C901841B950B8430910580F4E9
:103200008A819B816115710521F0FB019383828383
:1032100004C09093AD038093AC03FE01329642C08C
:10322000FE01E80FF91F4193519302979983888318
:1032300039C08091AA039091AB03009741F480912B
:10324000FE029091FF029093AB038093AA0320911A
:10325000FC023091FD022115310541F42DB73EB736
:103260008091000390910103281B390BE091AA0380
:10327000F091AB03E217F30798F42E1B3F0B2417D2
:10328000350770F0CA0102962817390748F08E0FEB
:103290009F1F9093AB038093AA034193519302C065
:1032A000E0E0F0E0CF01DF91CF9108950F931F93FD
:1032B000CF93DF939C01009709F48CC0DC01129737
:1032C00013961C921E9212976091AC037091AD03FD
:1032D0006115710589F48D919C911197820F931F4F
:1032E0002091AA033091AB032817390769F5B093F1
:1032F000AB03A093AA036EC0FB0140E050E001C005
:10330000FC01EA17FB0730F482819381AF0100973B
:10331000B9F71FC0E9012297FB83EA83088119816D
:10332000C901800F911F8E179F0759F480819181E9
:10333000800F911F029699838883828193819B835A
:103340008A834115510529F4B093AD03A093AC03D2
:1033500041C0FA01B383A283C191D191EC0FFD1F4B
:10336000AE17BF0781F4F901929182918C0F9D1FD6
:103370000296DA0111969C938E9382819381139623
:103380009C938E931297E0E0F0E002C0FB01BC0139
:10339000DB0112968D919C9113970097B9F7CB01A1
:1033A00002962D913C911197820F931F2091AA03B1
:1033B0003091AB032817390769F4309729F410923C
:1033C000AD031092AC0302C0138212827093AB0360
:1033D0006093AA03DF91CF911F910F9108958F926F
:1033E0009F92AF92BF92CF92DF92EF92FF92CF93D4
:1033F000DF93EC0188819981AA81BB810097A105A7
:10340000B10521F484E299EDABE5B7E0BC01CD0153
:103410002DE133EF41E050E00E946E1849015A015E
:1034200027EA31E440E050E00E940D186B017C0176
:10343000C501B4012CEE34EF4FEF5FEF0E940D1881
:10344000DC01CB01C80ED91EEA1EFB1EF7FE08C028
:103450008FEF9FEFAFEFBFE7C80ED91EEA1EFB1E2E
:10346000C882D982EA82FB82C6019F77DF91CF9121
:10347000FF90EF90DF90CF90BF90AF909F908F9094
:1034800008950E94EF19089582E093E00E94EF19D9
:103490000895A0E0B0E08093020390930303A0930B
:1034A0000403B09305030895FB01DC0102C00590FD
:0E34B0000D9241505040D8F70895F894FFCF88
:1034BE004279746520526563656976656400525879
:1034CE003A2000526F626F74204472756D6D657292
:1034DE000053656E642042504D204D6F646500426E
:1034EE00504D203D2036302D3631006D6F64653ADB
:1034FE00200042504D203D2036322D3634004250B1
:10350E004D203D2036352D36370042504D203D2082
:10351E0036382D36390042504D203D2037302D376C
:10352E00310042504D203D2037322D37340042506D
:10353E004D203D2037352D37370042504D203D2050
:10354E0037382D37390042504D203D2038302D3838
:10355E00310042504D203D2038322D38340042503B
:10356E004D203D2038352D38370042504D203D201E
:10357E0038382D38390042504D203D2039302D3904
:10358E00310042504D203D2039322D393400425009
:10359E004D203D2039352D39370042504D203D20EC
:1035AE0039382D39390042504D203D203130302DE3
:1035BE003130310042504D203D203130322D3130EE
:1035CE00340042504D203D203130352D3130370002
:1035DE0042504D203D203130382D3130390042508F
:1035EE004D203D203131302D3131310042504D20B2
:1035FE003D203131322D3131340042504D203D20AD
:10360E003131352D3131370042504D203D20313191
:10361E00382D3131390042504D203D2031323000AD
:10362E005041555345440044656661756C74206D78
:10363E006F64650044656C617920286D73293A20AA
:10364E000042504D204D6F646520557000546F2020
:10365E004D6F6465200042504D204D6F64652044CF
:10366E006F776E0001F4010B0C9602100000000043
:10367E00000000000000000000000000000000003C
:10368E000100000000000000000001040400D0074B
:10369E00F4010F009C01B501CF01EA0107022602D9
:1036AE00470269028E02B502DE020A030000AE0373
:0636BE00200001000000E5
:00000001FF
